{
  "_format": "hh-sol-artifact-1",
  "contractName": "Box",
  "sourceName": "contracts/test.sol",
  "abi": [
    {
      "anonymous": false,
      "inputs": [
        {
          "indexed": false,
          "internalType": "uint256",
          "name": "value",
          "type": "uint256"
        }
      ],
      "name": "ValueChanged",
      "type": "event"
    },
    {
      "inputs": [],
      "name": "retrieve",
      "outputs": [
        {
          "internalType": "uint256",
          "name": "",
          "type": "uint256"
        }
      ],
      "stateMutability": "view",
      "type": "function"
    },
    {
      "inputs": [
        {
          "internalType": "uint256",
          "name": "value",
          "type": "uint256"
        },
        {
          "internalType": "uint256",
          "name": "jwt",
          "type": "uint256"
        }
      ],
      "name": "store",
      "outputs": [],
      "stateMutability": "nonpayable",
      "type": "function"
    }
  ],
  "bytecode": "0x608060405234801561001057600080fd5b506101d0806100206000396000f3fe608060405234801561001057600080fd5b50600436106100365760003560e01c80632e64cec11461003b5780636ed28ed014610059575b600080fd5b610043610075565b604051610050919061015e565b60405180910390f35b610073600480360381019061006e9190610113565b61007e565b005b60008054905090565b81600081905550806001819055507f93fe6d397c74fdf1402a8b72e47b68512f0510d7b98a4bc4cbdf6ac7108b3c59826040516100bb919061015e565b60405180910390a17f93fe6d397c74fdf1402a8b72e47b68512f0510d7b98a4bc4cbdf6ac7108b3c59816040516100f2919061015e565b60405180910390a15050565b60008135905061010d81610183565b92915050565b6000806040838503121561012657600080fd5b6000610134858286016100fe565b9250506020610145858286016100fe565b9150509250929050565b61015881610179565b82525050565b6000602082019050610173600083018461014f565b92915050565b6000819050919050565b61018c81610179565b811461019757600080fd5b5056fea2646970667358221220b7b7fbbc716360c9a3828d8d79a655436e863de2b3639b27b5bc49f80089462164736f6c63430008000033",
  "linkReferences": {},
  "deployedLinkReferences": {}
}